S01300004C43442D646973706C61792E737265631B
S11300000C942A000C9447000C9417010C9447009C
S11300100C9447000C9447000C9447000C94470040
S11300200C9447000C9447000C9447000C94470030
S11300300C9447000C9447000C9447000C94470020
S11300400C9447000C9447000C9447000C94470010
S11300500C94470011241FBECFE5D4E0DEBFCDBF12
S113006010E0A0E6B0E0E0E0F9E002C005900D92F7
S1130070AE36B107D9F720E0AEE6B0E001C01D927C
S1130080AF36B207E1F70E9474010C947E040C941D
S1130090000087B3876187BB87B3806A87BB81E52C
S11300A08DB908958FB9779BFECF8FB1089588B32A
S11300B08F7E88BB88B3806188BB80E00E94520039
S11300C0089592B39F7792BB92B3906292BB85BB23
S11300D08FEC97E00197F1F700C0000082B38F7DA9
S11300E082BB8FEC97E00197F1F700C00000089500
S11300F092B3906A92BB85BB8FEC97E00197F1F7BE
S113010000C0000082B38F7D82BB8FEC97E0019723
S1130110F1F700C00000089581B3806E81BB12BA6C
S11301208FEF84BB15BA8FEC97E00197F1F700C00D
S1130130000088E00E9461008FEC97E00197F1F7DE
S113014000C000008CE30E9461008FEC97E00197EF
S1130150F1F700C0000081E00E9461008FEC97E09D
S11301600197F1F700C0000086E00E9461008FE073
S11301709EE00197F1F700C000008FE00E9461004B
S11301800895CF93DF93EC0103C021960E94780079
S113019088818111FACFDF91CF91089581B3877F50
S11301A081BB82B3886082BB8BB780688BBF85B705
S11301B0826085BF789408950F931F93CF93DF9344
S11301C0CDB7DEB764970FB6F894DEBF0FBECDBFD0
S11301D03F932F937F936F931F924F939F938F938C
S11301E080E690E09F938F938E010F5F1F4F1F93C4
S11301F00F930E94940181E00E94610080E80E94B4
S11302006100C8010E94C10089EE0E9461000FB61E
S1130210F894DEBF0FBECDBF64960FB6F894DEBF70
S11302200FBECDBFDF91CF911F910F9108951F9203
S11302300F920FB60F9211242F933F934F935F9316
S11302406F937F938F939F93AF93BF93CF93EF93CA
S1130250FF930E94570080936E00582F52955F7051
S1130260382F3F70C89906C0832F90E0850F911DE9
S1130270CBE220C0C99906C0852F90E0831B910969
S1130280CDE218C0CA9905C0539FC0011124CAE227
S113029011C0CB9909C0332351F0852F632F0E94DD
S11302A0880190E0CFE206C080E090E003C0CFE296
S11302B080E090E0632F70E09C014C2F852F90E04C
S11302C00E94DC00FF91EF91CF91BF91AF919F917C
S11302D08F917F916F915F914F913F912F910F90EB
S11302E00FBE0F901F9018950E9449000E948C0029
S11302F08FEF84BB0E94CE008AB3807F8ABB8BB30E
S11303008F608BBB10926E0082B3816082BBFFCF83
S1130310991B79E004C0991F961708F0961B881F53
S11303207A95C9F780950895AEE0B0E0EAE9F1E086
S11303300C9455040D891E8986E08C831A830983E5
S11303408FEF9FE79E838D83AE01475E5F4F6F897A
S1130350788DCE0101960E94B601EF81F885E00FF9
S1130360F11F10822E96E4E00C947104ABE0B0E02F
S1130370ECEBF1E00C9447046C017B018A01FC0175
S113038017821682838181FFCCC1CE0101963C0184
S1130390F6019381F70193FD859193FF81917F018C
S11303A0882309F4BAC1853239F493FD859193FF0A
S11303B081917F01853229F4B60190E00E94AD035A
S11303C0E7CF912C212C312CFFE1F315D8F08B329F
S11303D079F038F4803279F08332A1F4232D20614E
S11303E01DC08D3261F0803369F4232D216016C065
S11303F0832D8260382EE32DE4603E2E2AC0F32D37
S1130400F8601DC037FC2DC020ED280F2A3040F0C5
S11304108E32B9F436FC81C1232D2064322E19C0EA
S113042036FE06C08AE0989E200D1124922E11C03B
S1130430EAE02E9E200D1124222EF32DF0623F2E91
S113044008C08C3621F4832D8068382E02C088368B
S113045041F4F70193FD859193FF81917F0181110F
S1130460B3CF982F9F7D9554933028F40C5F1F4F82
S11304709FE399830DC0833631F0833771F0833560
S113048009F059C021C0F801808189830E5F1F4F94
S113049088248394912C530113C02801F2E04F0E59
S11304A0511CF801A080B18036FE03C0692D70E0B4
S11304B002C06FEF7FEFC5010E94A2034C018201CD
S11304C0F32DFF773F2E16C0280122E0420E511C67
S11304D0F801A080B18036FE03C0692D70E002C02F
S11304E06FEF7FEFC5010E9497034C01F32DF06875
S11304F03F2E820133FC1BC0822D90E088169906A2
S1130500B0F4B60180E290E00E94AD032A94F4CFE7
S1130510F50137FC859137FE81915F01B60190E0CA
S11305200E94AD0321102A9421E0821A91088114BB
S1130530910471F7E8C0843611F0893641F5F80169
S113054037FE07C060817181828193810C5F1F4FE8
S113055008C060817181072E000C880B990B0E5F17
S11305601F4FF32DFF763F2E97FF09C0909580957E
S1130570709561957F4F8F4F9F4FF0683F2E2AE013
S113058030E0A3010E94E903882E861845C0853710
S113059031F4232D2F7EB22E2AE030E025C0932D96
S11305A0997FB92E8F36C1F018F4883579F0B5C02B
S11305B0803719F0883721F0B0C0E92FE061BE2EF2
S11305C0B4FE0DC0FB2DF460BF2E09C034FE0AC07A
S11305D0292F2660B22E06C028E030E005C020E1B5
S11305E030E002C020E132E0F801B7FE07C06081CC
S11305F07181828193810C5F1F4F06C0608171817C
S113060080E090E00E5F1F4FA3010E94E903882E53
S11306108618FB2DFF773F2E36FE0DC0232D2E7F2F
S1130620A22E891458F434FE0BC032FC09C0832D69
S11306308E7EA82E05C0B82CA32C03C0B82C01C0F4
S1130640B92CA4FE0FC0FE01E80DF11D808180339A
S113065021F49A2D997EA92E09C0A2FE06C0B39456
S1130660B39404C08A2D867809F0B394A3FC11C016
S1130670A0FE06C0B21488F4280C922C9B180EC05D
S1130680B21460F4B60180E290E00E94AD03B3942A
S1130690F7CFB21418F42B1802C0982C212CA4FE06
S11306A010C0B60180E390E00E94AD03A2FE17C023
S11306B0A1FC03C088E790E002C088E590E0B601A1
S11306C00CC08A2D867859F0A1FE02C08BE201C0CD
S11306D080E2A7FC8DE2B60190E00E94AD0389148C
S11306E038F4B60180E390E00E94AD039A94F7CF0A
S11306F08A94F301E80DF11D8081B60190E00E9417
S1130700AD038110F5CF222009F442CEB60180E278
S113071090E00E94AD032A94F6CFF601868197817A
S113072002C08FEF9FEF2B96E2E10C946304FC016F
S11307300590615070400110D8F7809590958E0F08
S11307409F1F0895FC016150704001900110D8F77B
S1130750809590958E0F9F1F08950F931F93CF93AD
S1130760DF93FB01238121FD03C08FEF9FEF2CC09A
S113077022FF16C0468157812481358142175307D1
S113078044F4A081B1819D012F5F3F4F31832083C9
S11307908C93268137812F5F3F4F3783268314C084
S11307A08B01EC01FB010084F185E02D0995892B77
S11307B0E1F6D80116968D919C911797019617969C
S11307C09C938E931697CE01DF91CF911F910F9139
S11307D00895FA01AA27283051F1203181F1E894D3
S11307E06F936E7F6E5F7F4F8F4F9F4FAF4FB1E020
S11307F03ED0B4E03CD0670F781F891F9A1FA11D1B
S1130800680F791F8A1F911DA11D6A0F711D811D1B
S1130810911DA11D20D009F468943F912AE0269FE0
S113082011243019305D3193DEF6CF010895462F3F
S11308304770405D4193B3E00FD0C9F7F6CF462F20
S11308404F70405D4A3318F0495D31FD4052419389
S113085002D0A9F7EACFB4E0A69597958795779546
S11308606795BA95C9F700976105710508959B01CD
S1130870AC010A2E06945795479537952795BA9556
S1130880C9F7620F731F841F951FA01D08952F922F
S11308903F924F925F926F927F928F929F92AF920C
S11308A0BF92CF92DF92EF92FF920F931F93CF9359
S11308B0DF93CDB7DEB7CA1BDB0B0FB6F894DEBFF0
S11308C00FBECDBF09942A88398848885F846E8416
S11308D07D848C849B84AA84B984C884DF80EE8060
S11308E0FD800C811B81AA81B981CE0FD11D0FB669
S11308F0F894DEBF0FBECDBFED010895F894FFCF8D
S11109002564202563202564203D2025640005
S9030000FC
