:100000000C942A000C9447000C94C4000C944700F4
:100010000C9447000C9447000C9447000C94470044
:100020000C9447000C9447000C9447000C94470034
:100030000C9447000C9447000C9447000C94470024
:100040000C9447000C9447000C9447000C94470014
:100050000C94470011241FBECFE5D4E0DEBFCDBF16
:1000600010E0A0E6B0E0EAEDF2E002C005900D92EB
:10007000AA36B107D9F720E0AAE6B0E001C01D9288
:10008000AB36B207E1F70E9421010C946B010C948E
:10009000000087B3876187BB87B3806A87BB81E530
:1000A0008DB908958FB901C09FB1779BFDCF892F7E
:1000B0000895CF93C62FE82FF0E0E05AFF4F8081DC
:1000C0000E945200C23059F0C33081F0C130A1F417
:1000D00088B3816088BB88B38E7F88BB0DC088B32E
:1000E000826088BB88B38D7F88BB06C088B384607C
:1000F00088BB88B38B7F88BBCF91089588B38F7EF0
:1001000088BB88B3806188BB80E00E94520008955C
:10011000CF93DF93FC0164E670E00E944301CB01C2
:100120002AE030E0B9010E944301482FCF01B90114
:100130000E944301C82FCB01B9010E944301D82F6F
:1001400061E0842F0E94590062E08D2F0E945900C7
:1001500063E08C2F0E945900DF91CF91089581B305
:10016000877F81BB82B3886082BB8BB780688BBF7F
:1001700085B7826085BF7894089581B3816081BB23
:1001800082B3816082BB08951F920F920FB60F92C7
:1001900011242F933F934F935F936F937F938F938C
:1001A0009F93AF93BF93EF93FF930E947E00809342
:1001B0006A00282F22952F70682F6F70C89905C08C
:1001C000862F90E0820F911D1BC0C99905C0822F18
:1001D00090E0861B910914C0CA9904C0269FC001F3
:1001E00011240EC0CB9907C0662341F0822F0E94D4
:1001F000370190E005C080E090E002C080E090E030
:10020000992324F422B32E7F22BB03C022B32160A2
:1002100022BB99231CF49195819591090E94880035
:10022000FF91EF91BF91AF919F918F917F916F91CE
:100230005F914F913F912F910F900FBE0F901F90A4
:1002400018950E9449000E94AF000E94BD008AB329
:10025000807F8ABB8BB38F608BBB10926A0080E07B
:1002600090E00E94880082B3816082BBFFCF991B1F
:1002700079E004C0991F961708F0961B881F7A959D
:10028000C9F78095089597FB072E16F4009407D0C0
:1002900077FD09D00E94570107FC05D03EF49095E8
:1002A00081959F4F0895709561957F4F0895AA1B82
:1002B000BB1B51E107C0AA1FBB1FA617B70710F051
:1002C000A61BB70B881F991F5A95A9F78095909583
:0A02D000BC01CD010895F894FFCFA2
:0A02DA003F065B4F666D7D077F6FE6
:00000001FF
