S01200004C45442D6F75747075742E737265635F
S11300000C942A000C943C000C9464000C943C0066
S11300100C943C000C943C000C943C000C943C006C
S11300200C943C000C943C000C943C000C943C005C
S11300300C943C000C943C000C943C000C943C004C
S11300400C943C000C943C000C943C000C943C003C
S11300500C943C0011241FBECFE5D4E0DEBFCDBF1D
S113006020E0A0E6B0E001C01D92A136B207E1F79E
S11300700E94B2000C94D0000C94000087B38761F6
S113008087BB87B3806A87BB81E58DB908958FB933
S1130090779BFECF8FB1089588B38F7E88BB88B3DA
S11300A0806188BB80E00E944700089581B3877F08
S11300B081BB82B3886082BB8BB780688BBF85B7F6
S11300C0826085BF789408951F920F920FB60F92A5
S11300D011242F933F934F935F936F937F938F9349
S11300E09F93AF93BF93EF93FF930E944C00809331
S11300F06000282F22952F70682F6F70C89905C053
S1130100862F90E0820F911D1AC0C99905C0822FD5
S113011090E0861B910913C0CA9904C0269FC001B0
S113012011240DC0CB9906C0662339F0822F0E949A
S1130130C40005C080E090E002C080E090E08095BB
S113014085BBFF91EF91BF91AF919F918F917F916B
S11301506F915F914F913F912F910F900FBE0F9030
S11301601F9018950E943E008FEF84BB0E9456009A
S11301708AB3807F8ABB8BB38F608BBB1092600085
S113018082B3816082BBFFCF991B79E004C0991FC1
S1130190961708F0961B881F7A95C9F780950895DD
S10701A0F894FFCFFD
S9030000FC
